{
  "contractName": "Adoption",
  "abi": [
    {
      "constant": true,
      "inputs": [
        {
          "internalType": "uint256",
          "name": "",
          "type": "uint256"
        }
      ],
      "name": "adopters",
      "outputs": [
        {
          "internalType": "address",
          "name": "",
          "type": "address"
        }
      ],
      "payable": false,
      "stateMutability": "view",
      "type": "function"
    },
    {
      "constant": false,
      "inputs": [
        {
          "internalType": "uint256",
          "name": "petId",
          "type": "uint256"
        }
      ],
      "name": "adopt",
      "outputs": [
        {
          "internalType": "uint256",
          "name": "",
          "type": "uint256"
        }
      ],
      "payable": false,
      "stateMutability": "nonpayable",
      "type": "function"
    },
    {
      "constant": true,
      "inputs": [],
      "name": "getAdopters",
      "outputs": [
        {
          "internalType": "address[16]",
          "name": "",
          "type": "address[16]"
        }
      ],
      "payable": false,
      "stateMutability": "view",
      "type": "function"
    },
    {
      "constant": false,
      "inputs": [
        {
          "internalType": "uint256",
          "name": "petId",
          "type": "uint256"
        }
      ],
      "name": "deleteAdopter",
      "outputs": [
        {
          "internalType": "uint256",
          "name": "",
          "type": "uint256"
        }
      ],
      "payable": false,
      "stateMutability": "nonpayable",
      "type": "function"
    }
  ],
  "bytecode": "0x608060405234801561001057600080fd5b50610565806100206000396000f3fe608060405234801561001057600080fd5b506004361061004c5760003560e01c80633de4eb171461005157806343ae80d3146100975780638588b2c514610105578063cfc2034e14610147575b600080fd5b610059610189565b6040518082601060200280838360005b83811015610084578082015181840152602081019050610069565b5050505090500191505060405180910390f35b6100c3600480360360208110156100ad57600080fd5b810190808035906020019092919050505061020a565b604051808273ffffffffffffffffffffffffffffffffffffffff1673ffffffffffffffffffffffffffffffffffffffff16815260200191505060405180910390f35b6101316004803603602081101561011b57600080fd5b810190808035906020019092919050505061023d565b6040518082815260200191505060405180910390f35b6101736004803603602081101561015d57600080fd5b810190808035906020019092919050505061037e565b6040518082815260200191505060405180910390f35b6101916104e9565b6000601080602002604051908101604052809291908260108015610200576020028201915b8160009054906101000a900473ffffffffffffffffffffffffffffffffffffffff1673ffffffffffffffffffffffffffffffffffffffff16815260200190600101908083116101b6575b5050505050905090565b6000816010811061021757fe5b016000915054906101000a900473ffffffffffffffffffffffffffffffffffffffff1681565b60008082101580156102505750600f8211155b61025957600080fd5b600073ffffffffffffffffffffffffffffffffffffffff166000836010811061027e57fe5b0160009054906101000a900473ffffffffffffffffffffffffffffffffffffffff1673ffffffffffffffffffffffffffffffffffffffff1614610329576040517f08c379a00000000000000000000000000000000000000000000000000000000081526004018080602001828103825260138152602001807f616c72656164792061646f70746564207065740000000000000000000000000081525060200191505060405180910390fd5b336000836010811061033757fe5b0160006101000a81548173ffffffffffffffffffffffffffffffffffffffff021916908373ffffffffffffffffffffffffffffffffffffffff160217905550819050919050565b600080826010811061038c57fe5b0160009054906101000a900473ffffffffffffffffffffffffffffffffffffffff1673ffffffffffffffffffffffffffffffffffffffff163373ffffffffffffffffffffffffffffffffffffffff1614610431576040517f08c379a000000000000000000000000000000000000000000000000000000000815260040180806020018281038252602481526020018061050d6024913960400191505060405180910390fd5b3373ffffffffffffffffffffffffffffffffffffffff166000836010811061045557fe5b0160009054906101000a900473ffffffffffffffffffffffffffffffffffffffff1673ffffffffffffffffffffffffffffffffffffffff1614156104e15760008083601081106104a157fe5b0160006101000a81548173ffffffffffffffffffffffffffffffffffffffff021916908373ffffffffffffffffffffffffffffffffffffffff1602179055505b819050919050565b60405180610200016040528060109060208202803883398082019150509050509056fe4f6e6c792061646f70746572732063616e2063616c6c20746869732066756e6374696f6ea265627a7a723158206b7524a74ce9a0f554fe6e425920fd8cd77dc5e04c0d4930b76d82f8ed74038764736f6c63430005100032",
  "source": "pragma solidity ^0.5.0;\r\n\r\ncontract Adoption {\r\n    address[16] public adopters;\r\n\r\n    // Adopting a pet\r\n    function adopt(uint petId) public returns (uint) {\r\n        require(petId >= 0 && petId <= 15);\r\n        require(adopters[petId] == address(0), \"already adopted pet\");\r\n        adopters[petId] = msg.sender;\r\n\r\n        return petId;\r\n    }\r\n\r\n    // Retrieving the adopters\r\n    function getAdopters() public view returns (address[16] memory) {\r\n        return adopters;\r\n    }\r\n    \r\n    //Releasing a pet \r\n    function deleteAdopter(uint petId) public returns(uint) {\r\n        require(msg.sender == adopters[petId], \"Only adopters can call this function\");\r\n\r\n        if (adopters[petId] == msg.sender) {\r\n            adopters[petId] = address(0);\r\n            // delete adopters[petId]\r\n        }\r\n\r\n        return petId;\r\n    }\r\n}",
  "sourcePath": "C:/Dapp/dapp-petshop/contracts/Adoption.sol",
  "compiler": {
    "name": "solc",
    "version": "0.5.16+commit.9c3226ce.Emscripten.clang"
  },
  "schemaVersion": "3.3.4",
  "updatedAt": "2021-04-23T11:43:13.801Z",
  "devdoc": {
    "methods": {}
  },
  "userdoc": {
    "methods": {}
  }
}